:020000040000FA
:0600000002011D021E1B9F
:03002B0002254962
:03005300021E8EFC
:03006B0002251754
:10008300021CCFE5C754F84401F5C77901220000EB
:100093000080FB120086B90003020107E47921788E
:1000A30008B800028004F709D8FCE479297802B87B
:1000B30000028004F709D8FCE490028178D3790721
:1000C3008002F0A3D8FCD9FA781A90014D7A01BACC
:1000D30000028007E493A3F608DAF9900953AA8291
:1000E300AB8390014E783279048015E493A3AC82FC
:1000F300AD838A828B83F0A3AA82AB838C828D83A8
:10010300D8E9D9E775824775839F740312012F7568
:100113008291758300740012012F75D00075813FA1
:10012300751881751902759F00020096C09FF59F8F
:10013300E473D09F22D083D082C09FE493C0E07445
:100143000193C0E0740293F59F2201FF0000B40005
:100153000028002800283075A000A000A000A000FF
:1001630000080008E001F00010001000100010006B
:100173001000100050005000500010001000D00775
:100183000000000000000F000100050030750700AB
:100193001000010081FF0000FF7D069B068306FF20
:1001A30002020208025000A0000000E803022282BB
:1001B3000100000B82021E82010000A809021282C4
:1001C300010000B202021E82010000A9090214828A
:1001D300010000C802021E82010000AA0902168261
:1001E300010000CA02021E82010000AB090218824C
:1001F300080000CB02021E82010000AC09021A8231
:10020300010000AD09FF0100FF200222820100006E
:100213000882021E82010000110A021C82000000F3
:10022300000002108203000018035F0C5F0C5F0CD8
:100233005F0C5F0C5F0C5F0C5F0C5F0C5F0C5F0C63
:100243005F0C5F0CED0E050FE70EFFFF02020202CB
:100253000202020202010D000000100102228201CB
:1002630000000582021E82010000540A023282014C
:1002730000007807021E82010000550A0230820145
:1002830000001581021E82010000560A022E82011F
:100293000000F980021E82010000570A022C82012D
:1002A3000000A580021E82010000580A022A820172
:1002B3000000B780021E82010000590A0228820151
:1002C30000009380021E820100005A0A0226820166
:1002D30000008180021E820100005B0A024A820143
:1002E30000000781021E820100005C0A02428201B3
:1002F30000005D0A01E803053F10FF0001307503AC
:1003030002010600000000000000000000000000E1
:10031300000000000000000000000000000000FFDB
:10032300FF0600800CE8030201051AFF4C000215CA
:10033300E2C56DB5DFFB48D2B060D0F5A71096E0FB
:1003430000010002CDCD69626561636F6E0000003C
:1003530000000000000000000000001F1300002543
:10036300130A4368617261637465726973746963C4
:10037300203100024368617261637465726973744A
:10038300696320320008436861726163746572694E
:100393007374696320330010436861726163746529
:1003A3007269737469632034000243686172616324
:1003B30074657269737469632035000222820100D7
:1003C300000282021E82010000690B0238820300D0
:1003D300003D09020E820100006A0B021E82010029
:1003E300007B0B023A820100003E09020E820100EB
:1003F300007C0B021E820100008D0B023C82020076
:10040300003F09020E820100008E0B021E820100D2
:10041300009F0B023E82000000400902108203008D
:10042300004109020E82010000A00B021E8201009E
:1004330000B10B0240820400004709020E82010052
:1004430000B20B104B65792050726573732053749F
:1004530061746500022282010000FF81021E820195
:1004630000004B0C0248820000004C09021082037A
:1004730000004D09020E820100004C0C1201381BD2
:100483009403120138329403120138619403120168
:10049300389A9403120138C29403120138F094037A
:1004A3001201380795031201381E950312013834DF
:1004B30095031201385B95031201386E95031201FF
:1004C30038849503120138979503120138BC9503BC
:1004D30012013811A40212013810A5021201384585
:1004E300A50212013866A50212013876A50212018F
:1004F3003897A502120138A3A60212013870A70289
:10050300120138E3A70212013869A802120138ACBC
:10051300A802120138E3A80212013869A9021201E4
:10052300383BAA0212013899AA02120138B1AA0271
:100533001201382BAB021201382EAB0212013831F3
:10054300AB02120138D8AB02120138F0AB02120130
:100553003820AC0212013840AC021201382EAD0231
:10056300120138E4AD0212013830E10212013858A9
:10057300E10212013886E102120138BDE1021201E3
:100583003825E2021201386EE202120138B9E202A2
:10059300120138F7E20212013834E3021201386221
:1005A300E30212013809E40212013813E4021201D2
:1005B3003820E40212013853E40212013815E5022F
:1005C30012013821E50212013839E50212013843DC
:1005D300E502120138759C03120138839C03120152
:1005E300389B9C03120138B39C03120138DEA90126
:1005F3001201387CAA01120138F4AA011201380948
:10060300AC0112013843AC01120138ECAC01120108
:1006130038C1AD0112013825AF011201387CAF0199
:1006230012013803B001120138EAB0011201383760
:10063300B101120138C5B101120138E9B10112014A
:1006430038BEB301120138FFB30112013821B401DE
:10065300120138A2B4011201388CB50112013852CB
:10066300B60112013810C602120138E2C6021201A5
:10067300388BC702120138CEC7021201385BC80299
:10068300120138E7C802120138C8C902120138F74B
:10069300C902120138F3CA021201383BCB0212011C
:1006A300383DCC0212013881CC02120138A7CC02AA
:1006B300120138E29D031201381FFB021201383583
:1006C300FB021201385BFB0212013883FC021201A8
:1006D300388DFC02120138E6FD02120138E6FE02F3
:1006E300120138A3D202120138D8D3021201380BF7
:1006F300D40212013855D40212013813D602120162
:1007030038A76D001201380A6E001201384F6F00CE
:100713001201385F6F00120138826F00120138CD69
:100723006F001201387270001201386871001201F3
:1007330038327200120138AA7300120138EC7300C8
:100743001201388A7400120138D77400120138FD7F
:100753007400120138EB7600120138F076001201B2
:1007630038D17800120138257900120138877900D1
:10077300120138AF7900120138537A00120138158B
:100783007B00120138467B00120138497B001201BD
:1007930038917B00120138D37B001201383A7C0078
:1007A30012013883FD0112013896FD01120138AFA1
:1007B300FD01120138FAFD01120138D5FE011201C3
:1007C3003864FF01120138AFFF01120138702500B0
:1007D3001201387C2500120138B52500120138FAC0
:1007E3002500120138B12600120138372700120103
:1007F300389C2700120138C827001201380128004D
:10080300120138152A00120138F12B00120138DCCD
:100813002D00120138132F00120138733100120119
:10082300385F3200120138A53300120138B23400A8
:10083300120138CF34001201380735001201382174
:100843003500120138893500120138233A001201AC
:1008530038C43A00120138153B001201383C3B0002
:100863001201388A3B00120138A83B00120138FC00
:100873003B00120138D53C001201385C3E001201E6
:1008830038E43E0012013886DC0212013890DC02A3
:100893001201385BDD0212013876DD021201389C49
:1008A300DD02120138E0DD0212013818DE02120106
:1008B3003841DE02120138BADE02120138CFDE02FD
:1008C300120138E4DE021201381BDF021201382F55
:1008D300DF0212013860DF021201389ADF021201CF
:1008E30038C6DF021201381CE00212013870E00240
:1008F300120138B9E002120138E3E00212013808AC
:10090300E10212013833F702120138FDF702120136
:1009130038E0F80212013856F90212013898F90248
:10092300120138C5FA021201380080021201382977
:1009330080021201384280021201388781021201BB
:10094300386582021201388482021201381183024F
:10095300120138548302120138A184021201384073
:100963008502120138BF870212013856880212012C
:10097300382A89021201380C8A02120138788B0254
:100983001201380B8C02120138959803120138FEBC
:10099300980312013852990312013879990312010D
:1009A3003879EA02120138E6EA0212013831EB0221
:1009B30012013826EC0212013822ED021201380C22
:1009C300EE021201384FAE0212013891AE0212014B
:1009D300386BAF0212013844B0021201383FB10242
:1009E3001201381EB2021201388AB20212013851C2
:1009F300B302120138BCB30212013823B40212014C
:100A0300384EB402120138BFB40212013852B50293
:100A1300120138BBB502120138D0B50212013818E1
:100A2300B60212013831B60212013896B60212012B
:100A33003899B6021201382787031201384F87030A
:100A43001201388D87031201384B8803120138B61F
:100A53008803120138D28803120138FA880312017D
:100A6300382A8903120138398903120138B38903FB
:100A7300120138D9890312013805C701120138E27E
:100A8300C801120138DDCA01120138B0CB011201CD
:100A930038FBCB0112013846CC0112013858CC0186
:100AA30012013898CC01120138CDCC01120138194A
:100AB300CD0112013848CD011201386BCD0112016D
:100AC30038B8CD0112013841CE011201384ED001A0
:100AD30012013839D2011201387CD201120138E1F6
:100AE300D30112013822D40112013895D401120125
:100AF30038E1D4011201380CD501120138828C027D
:100B0300120138AD8C02120138949302120138B8E5
:100B13009502120138739702120138D0980212011C
:100B2300384B3F00120138E23F001201380F4000FA
:100B33001201385540001201389441001201382B3C
:100B43004300120138A54300120138C043001201CB
:100B530038354400120138644500120138BF46009D
:100B6300120138C147001201381E490012013837FB
:100B73004900120138944900120138764A001201E3
:100B830038A94A00120138194B00120138934B005F
:100B9300120138E24B00120138AE4C00120138B397
:100BA3004D00120138924E001201381D4F00120100
:100BB300388B4F00120138FF4F00120138285000C4
:100BC300120138E750001201386152001201387ED9
:100BD30052001201389D52001201382E53001201A7
:100BE300385353001201387B5300120138F6530077
:100BF300120138505400120138A455001201386113
:100C0300560012013834570012013836D50112014B
:100C13003886D50112013892D5011201386FD601F9
:100C23001201389FD601120138D7D6011201385666
:100C3300D7011201388ED701120138E0D701120112
:100C4300381DD80112013842DA011201386EDC0175
:100C530012013869DE0112013844E00112013865DE
:100C630025001201382D96011201387796011201E1
:100C730038569C01120138D79D0112013836A40160
:100C830012013831A5011201386EA5011201389104
:100C9300A501120138D3A501120138DCA501120107
:100CA30038E6A501120138D2A601120138C6A70100
:100CB300120138625700120138DA6100120138E07C
:100CC3006100120138EC6800120138008003120140
:100CD30038968003120138AC800312013826810351
:100CE3001201387C8103120138BA810312013817CB
:100CF30082031201389482031201389D8203120188
:100D030038A98203120138BC8203120138F8820326
:100D13001201380E83031201386D8303120138CE9A
:100D2300EE02120138DBEE02120138F5EE02120177
:100D33003834EF0212013872EF02120138D7EF0292
:100D4300120138ECEF02120138F7EF0212013804F6
:100D5300F0021201381BF00212013829F0021201CD
:100D63003834F00212013840F0021201384FF00219
:100D73001201385AF0021201387DF00212013826AE
:100D8300F10212013836F10212013850F102120158
:100D9300386DF10212013889F102120138AEF10205
:100DA300120138B8F102120138CCF102120138EB0A
:100DB300F1021201384CF20212013852F20212010E
:100DC3003858F2021201385EF2021201386AF20256
:100DD3001201389DF2021201380AE3011201388C24
:100DE300E30112013835E4011201387DE5011201F6
:100DF300388BE70112013871E801120138A6E801C6
:100E0300120138C8E80112013871E90112013841B1
:100E1300EB011201386AEB01120138E2EB01120116
:100E23003814EC0112013821EC011201386CEC0189
:100E330012013890EC01120138E1EE01120138EB96
:100E4300EF0112013847F00112013887B80112018E
:100E53003898B9011201387CBA0112013886BA01F7
:100E6300120138A8BA01120138B4BA011201385874
:100E7300BC0112013885BC011201389BBD0112016E
:100E830038F0BD011201383FBF0112013814C0010F
:100E930012013870C001120138DBC0011201381091
:100EA300C10112013853C1011201381DC4011201DD
:100EB3003835C401120138C6C401120138D4C40143
:100EC30012013821C5011201382FC5011201389BC7
:100ED300C50112013816C6011201386DC60112018F
:100EE30038F39802120138159902120138269B0231
:100EF300120138E59D021201380F9F02120138CD0D
:100F03009F02120138B9A002120138629203120142
:100F130038879203120138FD9203120138F3BE029F
:100F2300120138FCBE0212013805BF02120138DD7E
:100F3300BF021201388EC102120138BEC102120172
:100F430038E9C10212013819C20212013844C2023F
:100F530012013878C202120138A4C202120138E722
:100F6300C20212013812C30212013859C30212011C
:100F730038AEC302120138F0C3021201384AC40268
:100F830012013875C402120138C4C402120138F4C4
:100F9300C4021201381FC5021201384DC5021201E5
:100FA3003870C5021201386B9E03120138979E03F5
:100FB300120138C49E03120138CE9E03120138DE9B
:100FC3009E031201381CCD0212013826CD021201F4
:100FD3003867CD02120138B0CD02120138EACD02D2
:100FE30012013840CE0212013861CE021201386A72
:100FF300CE02120138BECE02120138E7CE02120130
:1010030038F1CE021201385FCF02120138EFCF025E
:101013001201384AD00212013878D0021201380086
:10102300D1021201383FD10212013874D1021201E8
:101033003886D102120138A5D102120138AED1028D
:1010430012013875D202120138AA9903120138A28B
:101053008E03120138D88E031201380C8F0312014C
:10106300385990031201384C9D03120138629D03D5
:101073001201386C9D03120138B69D03120138E842
:101083009E03120138D8E502120138EBE502120182
:1010930038ACE602120138EBE60212013808E70227
:1010A30012013841E7021201388EE702120138C0FB
:1010B300E702120138F7E70212013800EA021201CF
:1010C300386CEA02120138A19A03120138C49A0358
:1010D300120138F39A031201380B9B031201384DA6
:1010E3009B03120138047D00120138297D0012018F
:1010F30038537D001201389F9F031201384D82013E
:101103001201382B8401120138CA85011201387586
:101113008601120138F586011201387A870112011E
:1011230038A387011201387E8B01120138F58B0138
:101133001201380C8D01120138468D0112013887D6
:101143008D01120138CE8E01120138248F01120154
:10115300386D8F01120138DC8F011201384890017C
:10116300120138799001120138919001120138AAC5
:101173009101120138BA91011201387093011201E1
:1011830038879301120138B993011201385B950135
:10119300120138EF95011201386BA003120138F5E3
:1011A3009F0312013834A0031201387CA0031201FB
:1011B30038969B03120138A69B03120138BB9B038D
:1011C3001201386F9C03120138F0FE0212013875C8
:1011D300FF02120138D9FF02120138669703120188
:1011E30038889703120138E99703120138FB9703F4
:1011F3001201384B98031201388998031201388C75
:1012030098031201381AF3021201382EF302120165
:1012130038A8F3021201388CF40212013863F60283
:10122300120138C8F6021201381FF702120138F80A
:101233007F00120138688C03120138F88D03120104
:1012430038598E031201389F8E03120138CE95034D
:1012530012013820960312013893960312013800C5
:101263009703120138218A031201384B8A031201B2
:10127300381A8B03120138F68B03120138BDB602FC
:1012830012013889B702120138CAB70212013804B1
:10129300B80212013862B802120138B6B80212015C
:1012A3003814B902120138AAB902120138B2BA02CB
:1012B3001201383CBC02120138DABC021201384177
:1012C300BD0212013854BD0212013848BE02120198
:1012D3003891BE0212013894F001120138C6F301AD
:1012E30012013857F501120138AEF501120138CB5E
:1012F300F5011201384BF601120138C7F70112014B
:101303003896F80112013803FC01120138EDFC0193
:10131300120138C9D70212013887DA021201386480
:10132300DB0212013826DC021201389D830312010D
:1013330038E28303120138FF8303120138B58403B3
:10134300120138088503120138D88503120138EEDB
:101353008603120138939003120138D890031201C7
:10136300382C9103120138B19103120138299203E9
:101373001201383EA003120138D9FF01E066701054
:1013830008A3E066700A08A3E066700408A3E06699
:1013930022C3E7960809E7960809E7960809E7963E
:1013A30022C3E09608A3E09608A3E09608A3E0967C
:1013B30022C008C3E096F50808A3E096420808A3F4
:1013C300E096420808A3E09645087001D3D00822AE
:1013D300080808EAC0E0EBC0E086F0E7A4FA1809C1
:1013E30086F0E7A42AFA180986F0E7A42AFA18096E
:1013F30086F0E7A42AFA1986F0E7A4FBE5F02AFAB7
:10140300190886F0E7A42BFBE5F03AFA190886F0F1
:10141300E7A42BFBE5F03AFA18180986F0E7A4C510
:10142300F02BFBE43AFA1908E7C5F0C6A426F6E563
:10143300F03BFBE43AFA1886F0E7A4F6E5F0082659
:10144300F6E43B08F6E43A08F6D0E0FBD0E0FA22F3
:10145300E4CFC0E0E4CEC0E0E4CDC0E0E4CCC0E043
:1014630075F020C3E633F608E633F608E633F608EC
:10147300E633F6181818EC33FCED33FDEE33FEEFCC
:1014830033FFC3EC9709ED9709EE9709EF97191905
:1014930019400FFFEC97FC09ED97FD09EE97FE1934
:1014A3001906D5F0BEECF709EDF709EEF709EFF7EA
:1014B300191919D0E0FCD0E0FDD0E0FED0E0FF2206
:1014C3006016080808C6C313C618C613C618C61381
:1014D300C618C613C6D5E0EA2270090808082260B8
:1014E30016181818C6C333C608C633C608C633C68B
:1014F30008C633C6D5E0EA22E627F60809E637F63A
:101503000809E637F60809E637F622E026F608A3C7
:10151300E036F608A3E036F608A3E036F622E02626
:10152300F008A3E036F008A3E036F008A3E036F0B5
:1015330022C3E697F60809E697F60809E697F60840
:1015430009E697F622C3E096F008A3E096F008A315
:10155300E096F008A3E096F022E056F608A3E056E2
:10156300F608A3E056F608A3E056F622E056F00884
:10157300A3E056F008A3E056F008A3E056F022E0FB
:10158300F608A3E0F608A3E0F608A3E0F622E6F0E7
:1015930008A3E6F008A3E6F008A3E6F022E0FAA326
:1015A300E0FBA3E0FCA3E0FD22EAF0A3EBF0A3EC55
:1015B300F0A3EDF022CAC0E0E6F0A308DAFAD0E027
:1015C300FA22CAC0E0E0A3C582CCC582C583CDC5DB
:1015D30083F0A3C582CCC582C583CDC583DAE6D0AB
:1015E300E0CA22C3E498F8E499F91216278026C3C7
:1015F300E49AFAE49BFBE920E7E9121627E498F85A
:10160300E499F922C3E498F8E499F9121627E498C7
:10161300F8E499F9C3E49AFAE49BFB22EB20E7CFC1
:10162300E920E7E0B90010BB0008E88AF084F8AAD3
:10163300F022E4FBC8FA22EB70227B10C833C8C93E
:1016430033C9335007C39AC3DBF280069A50012A89
:10165300DBEAC833F4C8C933F4C9FA2275F008E4E5
:10166300C833C8C933C933C99AC99B5004C92AC9E5
:101673003BD5F0ECFBC833F4C8E4C9FA22600D088B
:10168300C6A2E713C618C613C6D5E0F322600C083A
:10169300C6C313C618C613C6D5E0F422700422606D
:1016A3000D18C6C333C608C633C6D5E0F4182225C1
:1016B3001810AF08F518400215198008F5184002F4
:1016C3001519D2AF22C0D0251810AF08F518500253
:1016D30005198008F51850020519D2AFD0D022257C
:1016E30018F58210AF08F518400215198008F5188F
:1016F30040021519D2AF851983222518F582E435E6
:1017030019F58322E4732518C582C0E0E51934FF77
:10171300C583C0E0E518C3958224F810AF0885831C
:10172300198582188008858319858218D2AFCEF077
:10173300A3E520F0A37808E608F0A3DEFAEFF0A310
:10174300E58124FAF8E608F0A3E608F0A3E608F03A
:10175300A30808E608F0A3E608F0A315811581D0D5
:10176300E0FED0E0F8158115811581E8C0E0EEC0F8
:10177300E0222518C582C0E0E51934FFC583C0E027
:10178300E518C3958224F910AF088583198582185B
:101793008008858319858218D2AFCEF0A3E520F0A7
:1017A300A37808E608F0A3DEFAEFF0A3E58124FBB3
:1017B300F8E608F0A3E608F0A30808E608F0A3E6B5
:1017C30008F0A315811581D0E0FED0E0F81581154E
:1017D30081E8C0E0EEC0E022851983851882E0A38A
:1017E300FEE0A3F5207808E0A3F608DFFAE0A3FF04
:1017F300E0A3C0E0E0A3C0E0E0A3C0E0E0A3C0E05A
:10180300E0A3C0E010AF088582188583198008859E
:101813008218858319D2AFD083D08202013585190E
:1018230083851882E0A3FEE0A3F5207808E0A3F601
:1018330008DFFAE0A3FFE0A3C0E0E0A3C0E0E0A379
:10184300C0E0E0A3C0E010AF08858218858319804B
:1018530008858218858319D2AFD083D08222C0D065
:101863002518C582C0E0E51934FFC583C0E0E5183B
:10187300C3958224F310AF088583198582188008E5
:10188300858319858218D2AFC8F0A3E9F0A3EAF0E3
:10189300A3EBF0A37908E709F0A3D8FAECF0A3EDE2
:1018A300F0A3EEF0A3EFF0A3D0E0F0A3D0E0F0A319
:1018B300D0E0F0A3E520F0A3E5F0F0A3228519839F
:1018C300851882E0C0E0A3E0F9A3E0FAA3E0FBA35C
:1018D3007808E0F608A3DFFAE0FCA3E0FDA3E0FE4E
:1018E300A3E0FFA3E0C0E0A3E0C0E0A3E0F5D0A342
:1018F300E0F520A3E0A3F5F010AF088583198582F6
:10190300188008858319858218D2AFD082D083D0FE
:10191300E0F8D0E03274048006740280027401C0DF
:10192300E0F4041216E2D0E01215B8227404800425
:1019330074028000CCC0E0EDC0E0E518C39CCCADE0
:101943001950011D10AF068C188D1980068C188D47
:1019530019D2AF1215C5D0E0FDD0E0FC22D083D060
:1019630082E9C0E0E493A3C386F0C5F095F0F908DB
:10197300E493A386F0C5F095F0700BE493A3C399A9
:101983004005E9048002A3E475F002A42582F582F0
:10199300E5F03583F583D0E0F9E493A3C0E0E49365
:1019A300C0E022D083D082ECC0E0EDC0E0E493A39A
:1019B300FCE493A3FDED4C600D1219F2EC24FFFC43
:1019C300ED34FFFD80EFE493A3FCE493A3FDED4C22
:1019D300600D121A31EC24FFFCED34FFFD80EFD0D3
:1019E300E0FDD0E0FCE493A3C0E0E493C0E022C0B8
:1019F300E0C3E49396087401939618400FE493664A
:101A0300700808740193661870007019A3A3C3E4E7
:101A13009396087401939618A3A3400DD0E0D0E0E9
:101A2300D0E00219E2A3A3A3A3A3A3D0E022C0E0C2
:101A3300C0F088F0E4936670080874019366187028
:101A430000A8F0A3A3700BD0F0D0E0D0E0D0E00268
:101A530019E2A3A3D0F0D0E02274F5121775EAFEC1
:101A6300EBFFEE2434F8EF3400F988088909EE24FB
:101A730035F582EF3400F583E0F8EE2437F582EF95
:101A83003400F583E0F50AEC850AF0A4FCAAF0859E
:101A93000AF0EDA42AFDE82CF8E43DF97A257B0051
:101AA300121627EA850882850983F05407F8740122
:101AB300B800028004C333D8FCC0E0E0131313540E
:101AC3001FF8EE28F8EF3400F9E8245DF582E934D5
:101AD30000F583D0E0F8E0586008EE2434F582EF97
:101AE300801EEE2436F582EF3400F583E0F5F0EA4C
:101AF30084A8F0EE28F8EF3400F9E82438F582E9F9
:101B03003400F583E0F97F0402182174F512177588
:101B1300EAFEEBFFEE2434F582EF3400F583E0C0F8
:101B2300E0EE2435F582EF3400F583D0E0F08E82C9
:101B33008F83A3A3A3A3A3A3A3C082C0838E828FF7
:101B430083A3A3A3A3A3E0F8A3E0F9D083D082E007
:101B5300C398F508A3E099F509EE2480F582EF34E4
:101B630000F583E064017069EE2481F582EF3400AF
:101B7300F583E0F8A3E0F98E828F83A3A3A3A3A345
:101B8300A3A3E0FCA3E0FD8E828F83A3A3A3A3A35F
:101B9300E0FAA3E0FBC3EA9CEB9D5027C3EC98ED6E
:101BA30099402EC3EA98EB9950277CFD7D04EEFA09
:101BB300EFFB120BBDEE2480F582EF3400F583E4D6
:101BC300F0800EC3EA98EB9940E0C3EC98ED99508E
:101BD300D9EE2434F8EF3400F9E8FCE9FDEE2435BE
:101BE300F582EF3400F583E0F8EE2437F582EF3425
:101BF30000F583E0F50AE508850AF0A4F508AAF0E4
:101C0300850AF0E509A42AF509E82508F8E4350969
:101C1300F97A257B00121627EA8C828D83F054070C
:101C2300F87401B800028004C333D8FCC0E0E013A9
:101C33001313541FF8EE28F8EF3400F9E8245DF588
:101C430082E93400F583D0E0F8E0586008EE2434EC
:101C5300F582EF801EEE2436F582EF3400F583E043
:101C6300F5F0EA84A8F0EE28F8EF3400F9E8243818
:101C7300F582E93400F583E0F9122509021B09C056
:101C830082C083851882851983E0F8A3E0F9C3EA4B
:101C93009CEB9D5012C3EC98ED994019C3EA98EB65
:101CA30099501279018010C3EA98EB9940F5C3EC7F
:101CB30098ED9950EE7900D083D08222EAC39CFA42
:101CC300EB9DFB22008521878522C622C0E0C0D080
:101CD300E8C0E0E9C0E0EAC0E0EBC0E0ECC0E0ED62
:101CE300C0E0C008C009C00AC00BC082C083C0F0F6
:101CF300759B00906182E0A2E64003021DADE59171
:101D0300A2E64003021DAD7591BF9003C2E06405D6
:101D13007008120CF5120D018003120CFB752100E3
:101D2300120D5BE99003C3F07900120D4F120B33D0
:101D33007A017B009003C1E0F912101F907803E051
:101D430064426003021DF690055FE014F060030235
:101D53001DF6C2AF121D5A00782AD0E0F618D0E063
:101D6300F6E59F5407F9700590817F80039081AB5E
:101D73007808121582E9C4C0E07829E65508F50809
:101D830008E65509F509740B7808121690D0E0257A
:101D930008F8906270E0A2E740F8E8C333906272FB
:101DA300F0906270E0D2E0F08049E0A2E55024E5D3
:101DB30091A2E5501E7591DF9003C2E0640D70138C
:101DC3009003E4E004F064287002E4F07A00E0F9A0
:101DD300120DCD906181E0A2E35009E5E9A2E35041
:101DE3000375E9F7A3E0A2E75009E591A2E75003E1
:101DF30075917FD0F0D083D082D00BD00AD009D098
:101E030008D0E0FDD0E0FCD0E0FBD0E0FAD0E0F970
:101E1300D0E0F8D0D0D0E032C0E0C0D0C082C083E0
:101E2300906183E0A2E05009E5BFA2E0500375BFD3
:101E3300FEE0A2E15009E5BFA2E1500375BFFDE05A
:101E4300A2E25009E5BFA2E2500375BFFBE0A2E3A3
:101E53005009E5BFA2E3500375BFF7E0A2E45009C0
:101E6300E5BFA2E4500375BFEFE0A2E55009E5BF6B
:101E7300A2E5500375BFDFE0A2E65009E5BFA2E685
:101E8300500375BFBFD083D0828088C0E0C0D0E844
:101E9300C0E0E9C0E0EAC0E0EBC0E0ECC0E0EDC0C8
:101EA300E0C0F0E5A7A2E6500FE5A1A2E650095372
:101EB300A7BF75A1BF121EF3E5A7A2E5500CE5A1CC
:101EC300A2E5500653A7DF75A1DFE5A7A2E15009FC
:101ED300E5A1A2E1500375A1FDE5A7A2E2500CE53F
:101EE300A1A2E2500653A7FB75A1FBD0F0021E048A
:101EF30074F81217757521019003C2E0640670151A
:101F0300120C898A828B83A3A3A3A3A3A3E0FAA3BE
:101F1300E0FB120CE3A2AFE433FED2AF9003C8E0C0
:101F2300640170187A207B009003C1E0F91210A9B4
:101F33007A207B009003C1E0F9121025906182E0C2
:101F4300D2E6F090055EE0602185C62280169003FC
:101F5300C7E064017008E5C654F84405F5C653BEEE
:101F6300FC121CC87401652160E4EEA2E092AF7F0D
:101F730001021821008E238F2485822885832785DB
:101F83001882851983E0CEA3E0CF85288285278335
:101F9300EBC9EAC8EDCBECCA75F010C3E833C8E966
:101FA30033C9EA33CAEB33CBC3EA9EF526EB9FF57D
:101FB30025B35004AB25AA26EC33CCED33CDD5F0B5
:101FC300DAAE23AF242274EB12177574FA1216B229
:101FD3008A088B098C148D159003C2E024F7C394EF
:101FE3000550069081F302212B120C898A0A8B0B70
:101FF300AE0AAF0BEE4F7003022128AC08AD098582
:102003001882851983AA82AB83120D138E828F8364
:10201300A3A378081215829081D3780812155C85E2
:102023001882851983780C1215829081D3780C124B
:10203300155C7808790C121394501F7808790C12E8
:10204300153490817378081213B4404785081085BE
:102053000911850A12850B138041850C10850D111A
:10206300850E12850F137810790812153490817339
:1020730078101213B4501C751000751100751200FE
:102083007513017810790C1215347810790812142D
:10209300FB80089081F3781012158274097810126E
:1020A30014DC9081E37808121582781079081214F1
:1020B300538E828F83A3A3A3A3A3A3E0F8A3E0F982
:1020C3007AD07B0312162788088909E4F50AF50BF1
:1020D300781079081214FB74041216FDE0F8A3E0DB
:1020E300F97AD07B03121627E8FA8A08E4F509780F
:1020F3001079081213945007781079081215349048
:1021030003C2E06408600AE064066005E0640570E9
:102113001C90817778101213B4501290817B781041
:1021230012150E800890819F7810121582851482F3
:10213300851583781012159174061216C87F0E0246
:10214300182174F7121775120D2590055CE06401D0
:102153007010906245E4F0A3F053F4F343FE0C5384
:1021630090F3120CD1E5C654804449F5C6E59E545C
:102173007F644970F8906185740FF090055AE0F41C
:102183007002A3E0604E90055BE0600814601B14CE
:10219300602E804075080175090090055AE07808A3
:1021A30012169FE508F45280802A7508017509000C
:1021B30090055AE0780812169FE508F452908014AF
:1021C30075080175090090055AE0780812169FE515
:1021D30008F452A079007F0202182174F7121775D0
:1021E300E9FEEAFF74016E700C7A807B009003C1F4
:1021F300E0F912101F902568E493F46008E493F962
:10220300120B27800953C680E59E547F70FA120C87
:10221300D790055CE064017003120B3F90055AE010
:10222300F47002A3E0604B90055BE0600814601A51
:1022330014602C803D75080175090090055AE078FB
:102243000812169FE5084280802875080175090069
:1022530090055AE0780812169FE50842908013759E
:10226300080175090090055AE0780812169FE508E1
:1022730042A0120D25120C898A088B09A808A90906
:10228300E8496015E5E170FCE82414F582E93400BF
:10229300F583E0F46003E0F5E174016F700A7A01FD
:1022A3009003C1E0F91210730221D974F11217756A
:1022B3008A088B098C0A8D0B740F1216FD780C1289
:1022C30015829081D3780812155C9081D3780C1213
:1022D300155C7808790C12139450157808790C1250
:1022E300153490817378081213B440157901801363
:1022F300780C7908121534908173780C1213B4405A
:10230300EB79007F0802182174ED1217758A088B88
:10231300098C0A8D0B74131216FD780C121582901A
:1023230081D3780812155C9081D3780C12155C78F0
:102333000C790812139440117808790C121534AAF9
:1023430008AB09AC0AAD0B8022751000751100753E
:1023530012007513017810790C121534781079086E
:102363001214FBAA10AB11AC12AD137F0C0218218F
:102373009081D378081215828A828B83780812158C
:102383006F7F0402182174F51217758C828D837880
:10239300081215828A828B837808121548EA24046E
:1023A300F8EB3400F98C828D83A3A3A3A3E0FCA3F1
:1023B300E0FD88828983C3E09CF0A3E09DF08882DE
:1023C3008983C3E09420A3E0944E40229081FB785C
:1023D300081215828A828B8378081215218A828BD0
:1023E30083A3A3A3A3E02420F0A3E0344EF08080D2
:1023F30074F5121775E9FE900514E0FAA3E0FBEEFD
:10240300C333F8E433F974E928F582748039F5832A
:10241300E02AF508A3E03BF509780812191C90811E
:10242300F71215A0121F7874021216C88A088B09B6
:102433008C0A8D0B741078081214C3AA08AB097F99
:102443000402182174F11217758A0C8B0D8C0E8DF2
:102453000F740F1216FDE0FAA3E0FB74111216FDC0
:10246300E0F508A3E0F50974131216FDE0FEA3E0FE
:10247300FF780812191CEA2401F508EB3400F5096A
:10248300E4F50AF50B780C79081213D39081877859
:1024930008121582780C79081213D3AA0CAB0DAC71
:1024A3000EAD0F121F7874021216C88B09EA450984
:1024B30060047A0180027A00EC2AFCED3400FDEC22
:1024C300F8EDF97A717B0212162788088909E4F579
:1024D3000AF50B8E828F837808121591ECF8EDF9CB
:1024E3007A717B021216278A088B09740578081201
:1024F300169F8E828F83A3A3A3A3E508F0A3E50908
:10250300F07F08021821C082C083E9906000F0D0F8
:1025130083D08222C0E074F2121861A2AFE433FECA
:10252300D2AFE589A2E04006E589A2E1500312118A
:10253300F3758900758900C2C5751A00EEA2E09291
:10254300AF7F010218C0C0E0C0D0E8C0E0E5A8D268
:10255300AFC2C7751A00A2E792AFD0E0F8D0D0D0CF
:10256300E032020135FFFFFFFFFFFFFFFFC082C024
:1025730083E9900A10F00227F474F7121709E9901F
:1025830002E0F07C187D037AFF7BFF12085D900266
:10259300E174FFF0A3F0A3E4F0A3F079051207E5DB
:1025A3009002E0E0F912070D7A7B7B08120A3D02E4
:1025B300350274F41217098A088B09EB54806030D2
:1025C3009002E0E0F91210078A0A8B0BAE0AAF0BF8
:1025D300EE4F60138E828F83E064B070031207FDA9
:1025E300EEFAEFFB120FF5AA08E5096480FB8004FD
:1025F3007A007B000227C374F212170974FC1216C7
:10260300B2EAFEEBFF74121216FD1239E9EE4F70B7
:102613000302269D74021216FDEEF0A3EF1229FEAB
:10262300ECF0A3ED1229FEAA82AB83120707E9F5AA
:102633000A706AE508450960648E828F831239CF78
:10264300EE4F60567A067B0012105B8A0C8B0DA846
:102653000CA90DE8497005750A13804188828983A6
:10266300E41226AAEEF0A3EF1239FAE508F0A3E587
:1026730009F09002E61227319002E670051234AC9D
:10268300801B12349A8003EAFCEBFD8C828D83124B
:10269300273170F38C828D8380E3750A02A90A7453
:1026A300041216C8023BE9F0A31239A0A32274F264
:1026B300121709890AE975F017A4FEAFF09002E535
:1026C300E4F09002E3122731600A1210619002E3F2
:1026D300E4F0A3F0EEFAEFFB12105B8A088B09EA31
:1026E3004509602FEEFCEFFD7900120FE39002E342
:1026F300E508F0A3E509F07B00800812271BE4F04E
:10270300A3F00BEBC3950A40F2E50A9002E5F079DA
:102713000080027913023BE9EB75F017A4F8A9F0E6
:102723009002E3E028FAA3E0398A82F5832212318A
:102733003EEA4B2274F4121709740C1216FD123977
:10274300C4FEE9FF750800750900800CE508240143
:10275300F508E5093400F509C3E5089CE5099D5032
:102763003285080A85090B7403780A12169FEA2535
:102773000AF8EB350BF988828983A3A3A3A3A3A348
:10278300123581EE650A7003EF650B70BFE8FAE955
:10279300FB80047A007B00802774F4121709790008
:1027A300EAA2E0501B75084A750981780812191CC2
:1027B3007C047D007A127B0A1207DF74021216C8AA
:1027C3007F040217DBC082C0839002E61227FB60FE
:1027D3001C88828983A3A3E06A7003A3E06B8882C9
:1027E300898370E8A3A3A3A312313A80047A007B00
:1027F30000D083D082020135123CCFE8492274EE27
:1028030012170974FC1216B2EAFEEBFF85188285D3
:102813001983E4F0A3F0EE240212348CEE240512A3
:1028230039A7EE2404F50EEF122DB3E024FE603930
:1028330024FC604624FE605224FE605E24FE700386
:1028430002291424FE700302297824FE700302294E
:102853008724FE700302299624FC70030229A52411
:10286300FE70030229B40229F19002FF7417F0A34A
:10287300E4122A061204850229F185188285198338
:10288300AC82AD831208030229C18518828519839E
:10289300AC82AD831208090229C1850C08850D0994
:1028A30074021216FDAC82AD8385088285098312FA
:1028B300313A12072B8A0C8B0DAC0CAD0DEC4D602D
:1028C3003BE4F50CF50D780C12191C750CFF750D16
:1028D30002780C12191C750C00750D03780C121973
:1028E3001C74081216FD121933123E4B1216C8E956
:1028F300F50C700B12313012049D800F750C01859D
:1029030008828509831229F41234AC850C08022944
:10291300C474021216FDAC82AD83850C82850D83CF
:10292300122F05603C850C82850D83A3A3121933F6
:102933007510FF751102781012191C7510007511AE
:1029430003781012191C74081216FD121933123E63
:102953004B1216C8E9F509700B1231301204A3802B
:102963000F750901850C82850D831229F41234AC8D
:10297300850908804C851882851983AC82AD831242
:10298300080F803A851882851983AC82AD831208BB
:1029930015802B851882851983AC82AD8312081BA1
:1029A300801C851882851983AC82AD83120821802F
:1029B3000D851882851983AC82AD83120827E9F54A
:1029C30008E50860298E828F83A3E06414601F8565
:1029D3000E82850F83E09002FF1229FE123CCB90FA
:1029E30003001234ACE508A3122A0612047F023353
:1029F3009B123CCF85188285198322F08518828526
:102A0300198322F07CFF7D02850A82850B831231B4
:102A13003E2274EE12170974FC1216B28A0A8B0B4B
:102A23008C0E8D0FEA2405F508EB3400F5097C15AF
:102A33007D0079007AFF7B02120FE3E5082402F59B
:102A43000CE5091239AA85188285198385821085B8
:102A53008311781012191C850882850983A3A3A307
:102A6300A3122EFC12191CE5082405F510E5093400
:102A730000F511781012191C850C82850D83123212
:102A83005112072574061216C88A108B11AE10AFA7
:102A930011E50A2402F50AE50B12348FEE4F700399
:102AA300022BD3801774021216FD12313A888289E1
:102AB30083EAF0A3EBF09002FFE004F09002FFE062
:102AC300C394054003022BD3E4F510F511781012DB
:102AD300191C7510E8751102781012191C7510E98C
:102AE300751102781012191C74061216FD1219338F
:102AF3007910EEFCEFFD123E4D1216C8E9705E85AB
:102B03000882850983A3A3A3A3A3A3A3E0F8900248
:102B1300E8E0687048122EFC12191C7CE97D02E57E
:102B2300082408FAE5093400FB120FDD74021216BB
:102B3300C8E960298E828F83A3A3A3A312313A909D
:102B430002FFE0F5107402781012169F740025102E
:102B5300F58274033511F583EAF0A3EBF0740212E6
:102B630016FD858210858311781012191C740212C8
:102B730016FD121933850C82850D831231601216EE
:102B8300C88A108B11AE10AF119002FFE0F51075DB
:102B930011007402781012169F74FF2510F8740246
:102BA3003511F988828983A31227317003022A9F82
:102BB300E82403080808E93400F9EE4F6003022A09
:102BC300A88882898374FFF0A3F09002FFE004F0E9
:102BD3009002FFE0600A1231301204917900800BF9
:102BE3008508828509831234A3790A02339B74EA28
:102BF30012170974FE1216B28C128D13EA2405F50E
:102C03000CEB123E351239D3750800750900EA241E
:102C130002F510EB3400F51185188285198385823E
:102C23000A85830B780A12191C850C82850D83A3F0
:102C3300A3A3A3122DC912191CE50C2405F50AE55B
:102C43000D12348F780A12191C850C82850D83129C
:102C53002DCD12072574061216C88A0A8B0BEA4576
:102C63000B7003022D6EEA2404F50EEB122DB31242
:102C730039D38A828B83A3A3A3E0F98510828511BC
:102C8300831231446003022D6EE4F514F5157814B4
:102C930012191C7514E8751502781412191C751491
:102CA300E9751502781412191C74061216FD12190F
:102CB300337913AC0AAD0B851082851183123E5311
:102CC3001216C8E9F5096003022D6E9002E8E0F8D8
:102CD300E5087009E02402900300F08014900300DB
:102CE300E0FCE82402FAE43400FBEA6C7001EB70C8
:102CF3007E850882AA82122EF39414122EEB506B57
:102D0300850E82850F83E0C0E074012A122DAAD0BC
:102D1300E0F00508850E82850F83A3E0C0E08508F7
:102D23000A7401250A122DAAD0E0F005089002E8E2
:102D3300122DC912191C7CE97D0285080A7401252C
:102D43000A122DBD1216C89002E8E02508F5087492
:102D5300FF6E700374FF6F6012EE24010EEF3400F8
:102D6300FFE508C394145003022C1BE508601312FB
:102D7300314E85108285118312313A1204977900FE
:102D83008014E509700375090A851282851383EEA1
:102D9300F0A3EFF0A90974021216C87F0E0217DB25
:102DA30085080C7401250CF58274033400F5832225
:102DB3003400F50F850E82F58322FA74033400FB89
:102DC300120FCB740222123A0922A3A3122DD3228B
:102DD30012349AFDEEFAEFFB2274EE12170974FE19
:102DE3001216B28C0E8D0FEA2405F50CEB1239AADC
:102DF300750B009002FFE4F0F50AEA2402F508EBF4
:102E03003400F50980449002FFE0FA9002E8E0F80C
:102E1300122EF39417122EEB400D9002FFE0F8747C
:102E230016C3989002E8F0122EFC12191C7CE97D5F
:102E33000274002AFA7403122DC01216C89002E815
:102E4300E0F89002FFE028F0050AE50C2416F5826D
:102E5300E50D122DAEE0F8E50AC39850749002FF19
:102E6300E0C39416506BE50AC333F8E433F9E50C79
:102E730028FEE50D39FF851882851983AC82AD8361
:102E83008E828F83122F057008750B0112349F8079
:102E930050E4F510F511781012191C7510E875112E
:102EA30002781012191C7510E975110278101219A5
:102EB3001C74061216FD12193379168508828509CA
:102EC30083123E531216C8E9F50B7003022E0980D4
:102ED300BB7CFF7D0285088285098312313A120487
:102EE300A9A90B740202339DE99400C365D0332270
:102EF300EA28F8E43400F9E822E0F51075110078C7
:102F030010221233928A108B11AC10AD11EC4D22AA
:102F130074EA12170974FC1216B28A0C8B0D8C1208
:102F23008D13EA2405F50AEB12348F750800750931
:102F330000E50A2402F510E50B3400F511740212C2
:102F430016FD85820E85830F780E12191C850A8261
:102F5300850B83A3A3A3A31239AF12191CE50A247B
:102F630005F50EE50B3400F50F780E12191C8510CC
:102F73008285118312349512313412072574061297
:102F830016C88A0E8B0FAE0EAF0FE50C2402F50E9A
:102F9300E50D3400F50F80388882898374FFF005CE
:102FA30008122DA374FFF005089002E8E0F50C75F4
:102FB3000D00780C12191C7CE97D0285080C740144
:102FC300250C122DBD1216C89002E8E02508F5085D
:102FD300EE4F60278E828F83A3A3A3E0F9850E8231
:102FE300850F83123144EE24041239A7E960278543
:102FF3000C82850D831231261234ACE5087003026E
:10300300310C12314E850E82850F8312313A120430
:10301300AF7900023121E4F514F515781412191C67
:103023007514E8751502781412191C7514E97515D1
:1030330002781412191C74081216FD12193379112F
:10304300EEFCEFFD850E82850F83123E531216C8E8
:10305300E9F509709A850882AA82EA9002E8700964
:10306300E02404900300F08025E0F8900300E0F5ED
:1030730014E82404FCE43400FDEC65147001ED70E5
:1030830081122EF39412122EEB4003023005850CAD
:1030930082850D83E0C0E074012A122DAAD0E0F0EE
:1030A3000508850C82850D83A3E0C0E0122DA3D013
:1030B300E012316985820C85830D780C12191C741A
:1030C300041216FD121933851082851183123160A3
:1030D3001216C88A0C8B0DAE0CAF0D85080C74014B
:1030E300250CF874033400F9EE4F7003022F9B850F
:1030F3001882851983E088828983123169A3E0C02D
:10310300E0122DA3D0E0022FA9E509700375090A87
:10311300850A82850B831231261234ACA909740403
:10312300022D9B123CCF851282851383227CFF7D67
:1031330002850A82850B8312313E22E0FAA3E0FB6B
:103143002212313E120713E9F50922900300E0F53C
:10315300F0E508849002FFF07CFF7D0222122DD35C
:10316300120731740422F005088518828519832219
:1031730074EC12170974FE1216B28A088B098C0EAE
:103183008D0FEA2405FEEB3400FF12337CEE241886
:103193001239A7EA450B700302321F123365502917
:1031A3001232448A108B11EA4511606B7912AC0A12
:1031B300AD0B85088285098312313A85108285110A
:1031C30083121707E9F50A7058E4F50AF50B780A34
:1031D30012191C8E828F83A3A3E0F50A780A1219B1
:1031E3001CEE240312348C780A12191C8E828F83EE
:1031F30012325112084B74061216C8E9F50A7021EF
:10320300850C82850D83E0701F85088285098312F2
:10321300313A1204B58011750A0E8009750A0180CE
:1032230004E50A600312349F850C82850D83E060F8
:103233000479008002A90A74021216C87F0C0217CF
:10324300DB85188285198312313E12083922123424
:103253009AFD85088285098312313E2274EE121786
:103263000974FE1216B28A088B098C0C8D0DEA24A0
:1032730005FEEB3400FF750E0012337CEA450B703C
:1032830003023343123365502C1232448A0E8B0FE0
:10329300EA450F604A7912AC0AAD0B8508828509AD
:1032A3008312313A850E82850F83121707E9F50ED3
:1032B3006003023346850882850983123581AA0A91
:1032C300FB12335770147AFF7BFF123357606C88FD
:1032D300828983E50AF0A3E50BF0750A0080077580
:1032E3000E0E805F050A9002E5E0FAE50AC39A50E4
:1032F3004AE50A75F017A4FAABF088828983A3A381
:10330300E02AFAA3E03BFB8A828B83123495EC4DCF
:1033130070D2750A17750B00780A12191CEEFCEFB0
:10332300FD120FCB74021216C8EEFCEFFD85088266
:1033330085098312313A1204BB8014750E09800388
:10334300750E01123CC7850C82850D831234ACA91E
:103353000E022EE612082D8A108B11A810A911E86F
:103363004922E5082402F508E5093400F5098A82B3
:103373008B83A3A3A3E0A2E522851882851983ACDE
:1033830082AD838E828F831233928A0A8B0B22E063
:10339300FAA3E0FB12072B2274041216C87F0A0259
:1033A30017DB74EC1217098C108D11EA2405F50C48
:1033B300EB1239AA750F00EA2402F50AEB12348FD7
:1033C300850A82F58312313A123ED97003023481A1
:1033D300750E008071850C82850D83E06401704F4A
:1033E3008E828F83A3A31219338E828F83A3A3A309
:1033F300A3E0F512751300781212191CEE2405F5DB
:1034030012EF3400F513781212191C12313412081A
:103413004B74061216C8E9F50F6014850C82850DEE
:1034230083E4F0123CC78510828511831234AC7C8F
:10343300177D007900EEFAEFFB120FE38E828F8384
:10344300E4F0A3F0050E9002E5E0F8E50EC3985012
:103453001EE50E75F017A4F8A9F085088285098387
:10346300A3A3123E3F123495EC4D60030233D8857B
:10347300088285098374FFF0A3F0E50F700612310B
:10348300341204C1A90F02323FF50AEF3400F50BE1
:1034930022A312349AFD22E0FCA3E0228E828F83C2
:1034A300123CCF850E82850F83E8F0A3E9F022C09A
:1034B30082C0839002E1E06A7003A3E06B70067A36
:1034C300E17B0280047A007B000227F474F7121771
:1034D300097F00EF75F003A4F8A9F0EC28F8ED39A3
:1034E300F988828983E06A7003A3E06B7006E8FAC7
:1034F300E9FB800B0FEFC3940240D87A007B007F77
:10350300010217DB74F6121709123AB870067A0033
:103513007B008007A3A3A3A312313A023B7974F281
:10352300121709E9FE740E1216FD1235817410127A
:1035330016FD1239E98C828D83E06402703BA3127D
:103543003CCB88828983E0F50CA3E0F9A80C7402D4
:103553006870037429697021750C02750D00780C6D
:1035630012191C780812191C780A12191CEEF91288
:10357300086F74061216C880027901023BE9E0F570
:103583000AA3E0F50B2274E812170974FB1216B2B2
:10359300E9851882851983F08A168B178C0E8D0F97
:1035A300741F1216FD1239E974211216FD123581AA
:1035B30074231216FD1239D37510008C828D83A3E8
:1035C300A3A3E0A2E4502A741D1216FD12324A8A04
:1035D300828B83E58245837003023695790AAC0EAC
:1035E300AD0FAA16AB17121707E9F51060030236E1
:1035F30098850E82850F83E06402600302394EA32F
:10360300123CCB850882850983A3858212858313A7
:10361300E50E2406F50CE50F1239AA88828983E0AA
:10362300FAA3E0F9EA2400F514E439F51578141245
:1036330019A60100002801285D3607000228343747
:103643000328A43600295E380129863802292D383B
:1036530003295E380429EF384E39EE4F703E850C4E
:1036630082850D831239C4FAE9FB8A828B83E08554
:103673000A82850B83123A0012191C8A828B83A358
:1036830012349AFDAA08AB09120FCB74021216C8A2
:10369300800375100EA9107405023E2D75100B8062
:1036A300F4EE4F70F7850A82850B837401F01239AB
:1036B300D9850882850983F07C007D00850E82858B
:1036C3000F83A3A3A3A3E02401FAA3E03400FB1216
:1036D300072BEA4B60418A828B83E02402F8850A38
:1036E30082850B83E028F0EA2404F8EB3400F988A0
:1036F300828983E0851282851383123A12123A007B
:1037030012191C8A828B83123494E5082403FAE588
:10371300093400FB02368B850A82850B83E024047F
:10372300F07C047D007900AA12AB13120FE302367A
:1037330098EE4F600302369F1239D9FEA3E0FF854E
:103743000A82850B837404F0EE850882850983F071
:10375300EF851282851383F074031216FDAC82ADDC
:1037630083EEFAEFFB123AA6700302380A8A828BC1
:1037730083A3A31239CF74011216FD85820E8583AC
:103783000F780E12191C74051216FD1219337CFFE3
:103793007DFF12073174041216C88B0FEA450F70B0
:1037A30033850C82850D831239AF12191C850C8267
:1037B300850D83A31219337C027D007A207B82124C
:1037C300055D74041216C8E9700A74011216FD74BB
:1037D300FFF0A3F08E828F83E064027034750C02D5
:1037E300750D00780C12191C8E828F83123494E5A8
:1037F300082404FAE509122DC01216C8850A828529
:103803000B83E02402800974011216FDEEF0A3EF8E
:10381300F074011216FD1239C0F074011216FDA3E3
:103823001239B8A3A3A3F0023698EE4F6003023611
:103833009F850C82850D83123495AA16AB17120847
:1038430063850A82850B837402F0EA850882850901
:1038530083F0851282851383EB80CBEE4F600302E6
:10386300369F1239D9F8A3E0F9850A82850B837450
:1038730002F0E8850882850983F0E98512828513C1
:103883008380A3850C82850D8312313A120FC5EA1A
:10389300FC8C82A882C39EE49F404BE86E7001EFCC
:1038A30070047C00801F851882851983E0FAEE2A54
:1038B300FAEF3400FBC3EA98EB94005003E0800472
:1038C300EECCC39CFCEC850A82850B83F08C0A75D5
:1038D3000B00780A12191C850C82850D83E02EFCDF
:1038E300A3E03F023686751007023698EE4F600359
:1038F30002369F850C82850D83123CCB850A828517
:103903000B837407F0888289831239B81239A0E0D7
:10391300851282851383F0E82402FAE93400FB8AD6
:10392300828B831239B81239F11239C0A31239FAD2
:103933001239C9F0E82405F8E93400F9888289834B
:103943001239C9A3123A12A3023826741D1216FDA6
:10395300123AB17003023695123CCB880C890DE8FC
:10396300450D70030236958E108F11781012191CB5
:10397300780A12191C780812191C74061216FDE035
:10398300F9AC0EAD0FAA16AB17850C82850D831209
:10399300170774061216C8E9F510023698F08882E4
:1039A3008983A322F50CEF3400F50D22E0F50E75A3
:1039B3000F00780E22E085088285098322123A19C6
:1039C30022123CCFE822123A19A3A322A3A3A3A352
:1039D300E0FEA3E0FF22850C82850D83E0F8A3E0DF
:1039E300F5838882E022E0F508A3E0F50922A3A38A
:1039F300F08A828B83A3221226ACA3A322F08A82AD
:103A03008B83123A0922E0F50A750B00780A221219
:103A130039A0123A1922E0850882850983A3A322DB
:103A230074EE12170974FE1216B28A0A8B0BECFAA3
:103A3300EDFB74141216FDE0F510A3E0F5117416F6
:103A43001216FDE0FE74181216FDE0F50EA3E0F564
:103A53000F851882851983AC82AD83123AA6603E26
:103A6300851882851983123AB1602FA3A31239E90D
:103A7300E50845096024780E12191C781012191CE8
:103A8300EEF9AC0CAD0DAA0AAB0B85088285098350
:103A930012170774041216C88006790E8002790182
:103AA300022EE612072B8A0C8B0DEA450D221231EA
:103AB3003E123AB8221207F78A828B83E582458346
:103AC3002274F612170974FE1216B2740C1216FD44
:103AD3001239C4851882851983F074011216FDE921
:103AE300F0E4F508F509780812191C75080278083E
:103AF30012191C74041216FD85820885830978083F
:103B030012191C12084B74061216C874021216C836
:103B1300806474F7121709EAFEEBFF89087C187DAD
:103B230003120863EA5402600BA908EEFAEFFB12D2
:103B3300071F8002790102350274F612170974FF18
:103B43006A700374FF6B701C7B00EB75F003A4F8C1
:103B5300A9F0EC28F8ED39F9123B7E0BEBC3940284
:103B6300501480E61208338A088B09A808A909E8CB
:103B7300496003123B7E7F020217DB8882898374CC
:103B8300FF1226AAE4F02274F61217091208338AE8
:103B9300828B83E58245836006A3A3E0FA80027AE1
:103BA300007B0080D174F21217098A088B09ECFE9E
:103BB300EDFF740E1216FDE0F50A123BEE701CEEDB
:103BC300FCEFFD7AFF7BFF123BEE70047911801648
:103BD30088828983E508F0A3E509F088828983A3B5
:103BE300A3E50AF079007F060217DB1208338A0C7B
:103BF3008B0DA80CA90DE8492274EE121709EAFEF1
:103C0300EBFF8C088D09890C74121216FD123CCB44
:103C130074141216FD12349574161216FD12313AED
:103C2300750D00EC4D6003023CBF7402650C60032C
:103C3300023CBA8882898312349AF9EC2400F50E87
:103C4300E439F50FEAF4F8EBF4F9EC58F8E50F5919
:103C5300F9E849705DE5082406F8E5093400F988B8
:103C63000A890B8882F583122DCF1208638A108B81
:103C730011E50E65107004E50F65116042780E12B0
:103C8300191C850A82850B83122DCF1208697402D1
:103C93001216C8E9F50D7027780E12191C850882D3
:103CA300850983A3A3122DCD12088174021216C8AD
:103CB300800D750D808008750D0D8003750D0BA9A2
:103CC3000D0233A08E828F83123CCF22E0F8A3E053
:103CD300F92274E812170974E71216B2851882855F
:103CE3001983EAF0A3EBF08C168D17890E74311249
:103CF30016FDE0F512A3E0F51374331216FDE0F59B
:103D030014A3E0F51574351216FDE0F50F750800E0
:103D1300750900E50975F003A4F8A9F085188285F3
:103D23001983123E3FE0F47003A3E0F47003023EF4
:103D33001DEE2402F50CEF123E35E07003023E1D2A
:103D430085160A85170B780A12191CAC14AD15AA2F
:103D530012AB131207EB74021216C88A0A8B0BEA12
:103D6300450B7003023E1DE4F510F511781012198E
:103D73001C74061216FD85821085831178101219A2
:103D83001C74091216FD858210858311781012198F
:103D93001C851282851383A3A3A3A3121933791459
:103DA300AC0AAD0B8E828F83123E531216C8E97094
:103DB30069850A82850B83A3A3A3A3123CCB740258
:103DC3001216FD1234AC850C82850D83E0A2E050FF
:103DD30018A90E74021216FDAC82AD838E828F83F6
:103DE30012313A120743E94208850C82850D83E0BC
:103DF300A2E15026E50FF50A780A121920A90E74DC
:103E0300031216FDAC82AD838E828F8312313A1278
:103E1300073D74011216C8E942080509E509C39470
:103E2300025003023D16A90874191216C87F100226
:103E330017DB3400F50D850C82F58322E028FEA301
:103E4300E039FF8E828F83227916850A82850B8360
:103E530012313E12084574082274F2121709EAFE61
:103E6300EBFF890B7401650B600E7402650B7063C5
:103E73007901120A5BE9705BEEFAEFFB123ED9603F
:103E830047750A00800B7C177D007900120FE3054C
:103E93000A9002E5E0F8E50AC3985021E50A75F0B7
:103EA30017A4F8A9F0850882850983A3A3E028FA5B
:103EB300A3E039FB8A828B831227FB70C9850882B2
:103EC30085098374FFF0A3F07C187D03EEFAEFFB02
:103ED30012085D023BE912082D8A088B09EA45099D
:103EE3002274F21217098A088B09ECFEEDFF740E97
:103EF3001216FD123581900A10E0F4603D7A097BB9
:103F030000120FEFEA4B60328A828B8374B1F0A305
:103F1300E41239F3A31239F1A3E508F0A3E509127A
:103F23003F40EEF0A3EF123F40A3A3E50AF0A3E561
:103F33000BF0900A10E0F9120FFB023BE9F08A82C2
:103F43008B83A3A3A3A3A322C082C0839061907495
:103F530004F0A37448F0A37402F09061807440F0FD
:103F63009061BC7403F09061877419F0906265747A
:103F73001BF090619C740DF090619A7433F0A374FC
:103F830055F09061A0743AF090055CE0640170090B
:103F9300C2919003C6746780059003C67461F09064
:103FA300256EE493906186F0902568E493F460278E
:103FB300E493540FF8906185E0686012E5C654807D
:103FC3004449F5C6E59E547F644970F8E8F053C64A
:103FD30080E59E547F70FA7905120DAF02418DC0C2
:103FE30082C083E9540FF9906185E0696012E5C6E8
:103FF30054804449F5C6E59E547F644970F8E9F05E
:1040030053C680E59E547F70FA02418DC082C083FF
:10401300E5A8F853A87E906181E4F0A3F0A3F0C271
:10402300BA539AFEC289759B00C2C275E9007591A5
:104033000075BF0075A91175B905906181F0A3746E
:10404300C0F0A3E4F0D2BA439A0174805842A802A4
:10405300418DC082C08374F81216B29003C4E0F895
:10406300A3E0F9E84970030241839003C4E054409C
:1040730060237908851882851983AA82AB83120C81
:1040830017851882851983AA82AB831208ED9003E2
:10409300C4E054BFF0E054806010790C7A807B0553
:1040A300120C179003C4E0547FF0E0A2E05031906B
:1040B300619A7433F0A37455F09061A0743AF09050
:1040C300055CE064017009C2919003C674678005C2
:1040D3009003C67461F01208F39003C4E054FEF039
:1040E300E05402603190619A743FF0A3745AF090E7
:1040F30061A0747FF090055CE064017009D2919037
:1041030003C6747180059003C6746AF01208F390B5
:1041130003C4E054FDF0E05404601390256CE49371
:10412300906186F01208F99003C4E054FBF0E05468
:1041330008601390256DE493906186F01208F9905E
:1041430003C4E054F7F0E05410601390256EE49339
:10415300906186F01208F99003C4E054EFF0E05444
:1041630020600A1208F99003C4E054DFF0A3E0547E
:1041730001600D120B3F1208FF9003C5E054FEF0DF
:1041830074081216C88003F0A3F0D083D082020112
:104193003574EC12170974F41216B2851882851956
:1041A30083AC82AD8375838175829774041215C5C0
:1041B30090256C93F46003024321907808E0C39444
:1041C30002500302430174041216FDAC82AD8375E1
:1041D300838175822274081215C585188285198317
:1041E30085821285831374041216FDAC82AD837528
:1041F3000EFF750FFF7FFF7E00750C48750D7880ED
:104203001574086E700302429474096E70030242BF
:1042130094740A6E607B850C82850D837808121571
:10422300828C828D83A909E50AC9F88810741878ED
:10423300081214C3E5104508F8C3E098A3E0998574
:104243000C82850D83780812158240188C828D8329
:10425300741878081214C3E5104508F8E0C398F8F9
:10426300A3E0801C741878081214C3E5104508FAFB
:10427300E9FB8C828D83E0F8A3E0F9EAC398F8EBBD
:1042830099F9C3E8950EE9950F5006880E890FEE4C
:10429300FF0EE50C2404F50CE50D3400F50DEEC31B
:1042A3009413500302420474FF650E700474FF6597
:1042B3000F60238F087402780812169F744825082C
:1042C300F58274783509F583780812158285128290
:1042D300851383E508F0EC24020C0CED3400FD8516
:1042E3001282851383A3858212858313740C12169D
:1042F300FDE5826C7003E5836D60030241F275088E
:1043030001750900780812191C74021216FDAC829B
:10431300AD837A5B7B091211CF74021216C8740C39
:104323001216C87F0C0217DBC082C0839061AE7483
:1043330068F0A3746AF090624574FBF0A304F05331
:10434300F4FD43FE0290055C7401F09061A0E0640B
:104353003A90619A70237433F0A37455F09061A07E
:10436300743AF0740164017009C2919003C67467D2
:1043730080289003C674618021743FF0A3745AF0BF
:104383009061A0747FF0740164017009D29190036D
:10439300C6747180059003C6746A02418C7F04025F
:1043A30017DBC082C08390050EE06401700A90059C
:1043B30013E06004790C8002790002418DC082C051
:1043C3008375E1F1900511E060551460081460599C
:1043D3001460518059120B51900507E0F97A087B5C
:1043E30005120D3190818F1215A0120D679081DB9C
:1043F3001215A0120D3D900512E0F9120D49790135
:10440300120DA3900505E02416F8A3E03400F98803
:104413008289837469F0A3740BF0790002418D12D1
:104423000B5780B4120B5D80AF120B6380AA791215
:1044330080EA74F412170975D90D9004F6E0A2E02E
:10444300E4331313F8900507E0C4333354C04844EE
:1044530001F5D97805790588828983A3A3A3E0F5BB
:10446300D988828983A3A882A983E8640B7003E9AE
:10447300640570E378F6790488828983A3E0F5D92B
:1044830088828983A3A882A983E864FC7003E96412
:104493000470E575E1959004F6E0F97AF77B041270
:1044A3000D37900A3274FDF0A3740AF0A3745FF021
:1044B300A3740CF0A3745FF0A3740CF0A3745FF007
:1044C300A3740CF0A37403F0A3740BF0A3745FF054
:1044D300A3740CF0A3741BF0A3740BF0900A407444
:1044E3005FF0A3740CF0A3745FF0A3740CF0A374D7
:1044F3005FF0A3740CF0A3745FF0A3740CF0A374C7
:104503005FF0A3740CF0A3745FF0A3740CF0900538
:1045130005E0F8A3E0F5838882A3A3780812158247
:1045230090818B780812150E9081D3780812155C50
:10453300900505E0240EF8A3E03400F9888289830E
:104543007808121591900505E02414F8A3E03400CF
:10455300F9888289837413F09003C27402F00243D2
:10456300A0C082C083900517E02407F5D990050702
:10457300E0C4333354C0F5D978057905888289833B
:10458300A3A3A3E0F5D988828983A3A882A983E89A
:10459300640B7003E9640570E3900517E0601F780E
:1045A300057905FAE82413F582E93400F583E0F58B
:1045B300D988828983A3A882A9831AEA70E6900521
:1045C30037E02407F5D9900507E0C4333354C044DA
:1045D30004F5D97805790588828983A3A3A3E0F537
:1045E300D988828983A3A882A983E8640B7003E92D
:1045F300640570E3900537E0601F78057905FAE8F4
:104603002433F582E93400F583E0F5D98882898380
:10461300A3A882A9831AEA70E675E195900A327419
:1046230009F0A3740BF0A3745FF0A3740CF0A374EC
:104633005FF0A3740CF0A3745FF0A3740CF0A37485
:1046430003F0A3740BF0A3745FF0A3740CF0A374D2
:104653001BF0A3740BF0900A40745FF0A3740CF08A
:10466300A3745FF0A3740CF0A3745FF0A3740CF055
:10467300A3745FF0A3740CF0A3745FF0A3740CF045
:10468300A3745FF0A3740CF09081FB1215A0900546
:1046930005E0240EF8A3E03400F98882898312151B
:1046A300AC900505E02414F8A3E03400F98882896E
:1046B300837412F09003C2740102418CC082C083E0
:1046C300900517E02407F5D9900507E0C433335468
:1046D300C04402F5D97805790588828983A3A3A309
:1046E300E0F5D988828983A3A882A983E8640B7043
:1046F30003E9640570E3900517E0601F7805790509
:10470300FAE82413F582E93400F583E0F5D98882C9
:104713008983A3A882A9831AEA70E675E195900AB2
:10472300327415F0A3740BF0A37415F0A3740BF09B
:10473300A37415F0A3740BF0A37415F0A3740BF01A
:10474300A37415F0A3740BF0A37415F0A3740BF00A
:10475300A3741BF0A3740BF0900A40745FF0A3746E
:104763000CF0A3745FF0A3740CF0A3745FF0A37454
:104773000CF0A3745FF0A3740CF0A3745FF0A37444
:104783000CF0A3745FF0A3740CF09081FB1215A0DE
:10479300900505E0240EF8A3E03400F988828983AC
:1047A3001215AC900505E02414F8A3E03400F98851
:1047B3008289837414F09003C2740402418CC08212
:1047C300C083900517E02407F5D9900507E0C433AB
:1047D3003354C04406F5D97805790588828983A3C3
:1047E300A3A3E0F5D988828983A3A882A983E86477
:1047F3000B7003E9640570E3900517E0601F78050B
:104803007905FAE82413F582E93400F583E0F5D954
:1048130088828983A3A882A9831AEA70E690053760
:10482300E02407F5D9900507E0C4333354C04404AA
:10483300F5D97805790588828983A3A3A3E0F5D9FF
:1048430088828983A3A882A983E8640B7003E9643F
:104853000570E3900537E0601F78057905FAE824D1
:1048630033F582E93400F583E0F5D988828983A39F
:10487300A882A9831AEA70E675E195900A32740F4B
:10488300F0A3740BF0A3745FF0A3740CF0A3745F34
:10489300F0A3740CF0A3745FF0A3740CF0A3745F23
:1048A300F0A3740CF0A3745FF0A3740CF0A3741B57
:1048B300F0A3740BF0900A40745FF0A3740CF0A3A0
:1048C300745FF0A3740CF0A3745FF0A3740CF0A3F3
:1048D300745FF0A3740CF0A3745FF0A3740CF0A3E3
:1048E300745FF0A3740CF09081FB1215A090050582
:1048F300E0240EF8A3E03400F9888289831215AC12
:10490300900505E02414F8A3E03400F98882898334
:104913007415F09003C2740302418CC082C083906B
:104923000505E0F8A3E0F5838882A3A3A3A3A3A3CB
:10493300E402418A74F71217099003F0E0F875F066
:1049430004A4C8AAF02AF974F228F8740339F9E820
:104953002405FAE93400FB8A828B83E0FCA3E0FDA3
:1049630088828983A3A3A3A3A3A3A3A3A3ECF0A3F4
:10497300EDF088828983A3A3A3A3A3A3A3E024FFC9
:10498300F8A3E034FFF98A828B83E8F0A3E9024BB2
:10499300DC74F7121709EAFEEBFF9061D0E06003C5
:1049A300024A7175D90E75D90375D904EE248CF5B5
:1049B30082EF3400F583E5822408F8E5833400F9B7
:1049C300E0F5D9A3E865827003E9658370F2EE240C
:1049D30084F582EF3400F583E5822404F8E583341B
:1049E30000F9E0F5D9A3E865827003E9658370F205
:1049F30075E1957908EE248CFAEF3400FB120C0B69
:104A03007904EE2484FAEF3400FB120C0B7C00EEE5
:104A1300F8EFF9ECFAC3E49AFA95E0FBEE2AFAEF21
:104A23003BFBEA248BF582EB3400F583E0C0E0E83E
:104A330024ABF582E93400F583D0E0F00C88828959
:104A430083A3A882A983ECC3940840C7EE2470F51E
:104A530082EF3400F583E0F8A3E0F9EE2472F582E7
:104A6300EF3400F583E8F0A3E9F0790180027900DF
:104A7300024BDDC082C08375D90275D90375D90590
:104A830075E195EA2470F582EB3400F583E0F8A331
:104A9300E0F9EA2472F582EB3400F583E8F0A3E948
:104AA300F0790102418D74F6121709EAFEEBFF90CB
:104AB30005607406F0750860750905780812191CFD
:104AC3007C017903120C5374021216C875D906754A
:104AD300D903758260758305E0F5D9A3E582646522
:104AE3007004E583640570F075E1959003C2E0649A
:104AF30008701EEE2470F582EF3400F583E0F8A30E
:104B0300E0F9EE2472F582EF3400F583E8F0A3E9CF
:104B1300F07901024CA974F6121709EAFEEBFF9033
:104B230061D0E070667801900560740BF09003C269
:104B3300E064077019750860750905780812191C77
:104B43007C017903120C5374021216C878057401A0
:104B530028F5D975D903758260758305E8FAE0F500
:104B6300D9A31AEA70F875E195EE2470F582EF3453
:104B730000F583E0F8A3E0F9EE2472F582EF340048
:104B8300F583E8F0A3E9F0790180027900024CA9EA
:104B930074F7121709EAFEEBFF75D90375D903758C
:104BA300D90DEE24DEF582EF3400F583E0F5D975F7
:104BB300E1957904120D6DEE2470F582EF3400F562
:104BC30083E0F8A3E0F9EE2472F582EF3400F58375
:104BD300E8F0A3E9F079018001F07F010217DB74AB
:104BE300F6121709EAFEEBFF9061D0E0F87480C378
:104BF30098FAEE2483F582EF3400F583E0600478BD
:104C03000480027800E8240BF8EAC3985003024CAE
:104C1300A77D09900560EDF0EE24E3F8EF3400F989
:104C23007A617B057C0888828983E08A828B83F0A2
:104C330088828983A3A882A9838A828B83A3AA8279
:104C4300AB831CEC70E0EE2483F582EF3400F58334
:104C5300E0601D750860750905780812191C7C0948
:104C63007903EEFAEFFB120C5374021216C87D0D92
:104C730074012DF5D975D9037582607583058D0887
:104C8300E0F5D9A31508E50870F675E195790412E6
:104C93000D6DEE241DF582EF3400F583E4F0A3F0EF
:104CA3007901800279007F020217DB74F61217097B
:104CB300EAFEEBFF9061D0E0F87480C398FAEE242B
:104CC30083F582EF3400F583E06004780480027892
:104CD30000E82408F8EAC3985003024DAE7D06901D
:104CE3000560740CF09003DFE0900561F07AE07BDF
:104CF30003786279057C028A828B83E088828983C8
:104D0300F08A828B83A3AA82AB8388828983A3A838
:104D130082A9831CEC70E07AE27B037C028A828B9B
:104D230083E088828983F08A828B83A3AA82AB8300
:104D330088828983A3A882A9831CEC70E0EE248374
:104D4300F582EF3400F583E0601D75086075090591
:104D5300780812191C7C067903EEFAEFFB120C5348
:104D630074021216C87D0A74012DF5D975D903751D
:104D730082607583058D08E0F5D9A31508E50870F1
:104D8300F675E1957904120D6DEE2470F582EF341A
:104D930000F583E0F8A3E0F9EE2472F582EF340026
:104DA300F583E8F0A3E9F0790180027900024CA9C8
:104DB30074F6121709EAFEEBFF9061D0E0F87480F5
:104DC300C398FAEE2483F582EF3400F583E06004A0
:104DD300780480027800E82404F8EAC398500302B8
:104DE3004E8D7802900560E8F0EE24F5F582EF34FD
:104DF30000F583E0900561F0EE2483F582EF340043
:104E0300F583E0601B750860750905780812191CA5
:104E13007C027903EEFA120C5374021216C8780658
:104E2300740128F5D975D9037582607583058808DF
:104E3300E0F5D9A31508E50870F675E195EE24743D
:104E4300F582EF3400F583E4F0EE2480F582EF344D
:104E530000F583E4F0EE241DF582EF3400F583E4DE
:104E6300F0A3F07904120D6DEE240DF582EF3400FA
:104E7300F583E0F8A3E0F9EE2472F582EF3400F550
:104E830083E8F0A3E9F0790180027900024CA97468
:104E9300F61217099061D0E0F87480C398FCEA24F5
:104EA30083F582EB3400F583E060047804800278B4
:104EB30000E82404F8ECC398405B79029005607421
:104EC30007F0EA24F6F582EB3400F583E090056100
:104ED300F0EA2483F582EB3400F583E0601875086B
:104EE30060750905780812191C7C0209120C5374A9
:104EF300021216C87906740129F5D975D90375828A
:104F030060758305E9F8E0F5D9A318E870F875E151
:104F130095790180027900024CA974F5121709E909
:104F2300FCA2AFE433F50AC2AF7D0080010DEA2491
:104F33006FF582EB3400F583E0F8EDC398501A8DDA
:104F430008EA2508F8EB3400F9E8246BF582E93424
:104F530000F583E06C70D68024EA246FF8EB34000C
:104F6300F9E0FEEA2EFAEB3400FBEA246BF582EB60
:104F73003400F583ECF088828983E004F0E50AA22B
:104F8300E092AF7F030217DB74F6121709A2AFE4B6
:104F930033FDC2AFEA246FF582EB3400F583E014EE
:104FA300F07C0060368C08EA2508F8EB3400F9E859
:104FB300246CF582E93400F583E0C0E0E8246BF566
:104FC30082E93400F583D0E0F00CEA246FF582EB3C
:104FD3003400F583E0F8ECC39840CAEA246EF58206
:104FE300EB3400F58374FFF0EA246AF582EB3400B6
:104FF300F583E4F0EDA2E092AF024CA9C082C08336
:10500300E5A8F8C2AFEA246BF582EB3400F583E937
:10501300F0EA246AF582EB3400F583E4F0E8A2E7D2
:1050230092AF02418D74F3121709EAFEEBFFECFA1B
:10503300EDFB8A828B83A3A3A3A3E0541FF0EE248A
:1050430036F582EF3400F583E4F0F50AEEFCEFFD6C
:105053008A828B83E0C0E0EC245DF582ED3400F5B9
:1050630083D0E0F0750B00E50A33333354F8F50CC5
:105073008A828B83E0F508750900E50B7808121620
:1050830080E508A2E0502FEE2436F8EF3400F988CB
:10509300828983E0F508EE2508F508EF3400F50969
:1050A300E5082438F582E5093400F583E50CF0883A
:1050B300828983E004F0050B050CE50BC3940840DB
:1050C300AF050A8A828B83A3AA82AB838C828D83EA
:1050D300A3AC82AD83E50AC3940550030250537F0A
:1050E300050217DB74F71217099003EEE0640170F1
:1050F300077A007B0002525E7E009003F4E070F1B9
:105103007401F0A3E4F0A3F090045404F090045766
:10511300E4F0A3F090045A04F09003F7E4F0A3F052
:10512300A3F0A3F090040104F0900427E4F090812D
:105133009F1215A090040A1215AC90040EE4F0A37C
:10514300F0A3F0900472F0900466F090045B748016
:10515300F0A3E4F0900461F0900459F09004DDF0C2
:10516300A3F0A3F0A3F0A3F0A3F0A3F0A3F09004A3
:10517300E6F0900475F09004C5F0A3F090819F12BF
:1051830015A09004C71215AC90819F1215A090042E
:10519300CB1215AC9004D1E4F09004D3F09004CF7B
:1051A300F09004E9F0A3F0A3F0A3F0A3F0A3F0A31D
:1051B300F0A3F078EE7903E8246FF582E93400F583
:1051C3008374FFF00E88828983A3A882A983EEC328
:1051D300940440E37AEE7B0378FD79048882898323
:1051E300E0C0E0EA2461F582EB3400F583D0E0F01F
:1051F30088828983A3A882A9838A828B83A3AA82B4
:10520300AB83E864027003E9640570D07AEE7B0334
:1052130078D5790388828983A3E0C0E0EA24E7F59F
:1052230082EB3400F583D0E0F088828983A3A882DF
:10523300A9838A828B83A3AA82AB83E864DD70038C
:10524300E9640370CF9003EEE004F064017008900A
:1052530003F6E09003F0F07AF27B03024BDDC082A9
:10526300C0839003F5E4F09003F4F09003EEF0A311
:10527300F0A374FFF075E1F102418DC082C0837821
:105283000079009003F5E0600478F279038882895D
:1052930083A3A3A3A3E0F902418D74F6121709EACD
:1052A300FEEBFF8E828F83A3A3A3E0600F8E828F1A
:1052B30083A3A3A3E4F09003EFE014F09003EEE0E4
:1052C30014F070069003F074FFF08E828F83A3A313
:1052D300E4F0900502E0700D9003EFE064017005C7
:1052E3007900120D4FEE2465F582EF3400F583E06B
:1052F300F8A3E0F9E8496029EE2465F8EF3400F9F2
:10530300880889098882F583E0FCA3E0FD9003F017
:10531300E0FA7B00120923850882850983E4F0A360
:10532300F0EEFAEFFB120C83024CA974F712170983
:10533300EAFEEBFF8E828F83A3A3A3A3E0FA7B0095
:10534300120965EEFAEFFB120BD5120C6B024BDD63
:10535300C082C08378D5790388828983A3E4F088E7
:10536300828983A3A882A983E864DD7003E96403C7
:1053730070E69003D60246BA74F6121709EAFEEBFA
:10538300FFEC2403F8ED3400F988088909EC2407BD
:10539300F8ED3400F9E8FCE9FD8C828D83E0F8A395
:1053A300E0F9850882850983E0FAA3E0FB1216275A
:1053B300EE240DF582EF3400F583E8F0A3E9F08CD9
:1053C300828D83E0F8A3E0F9850882850983E0FAFA
:1053D300A3E0FB1216278B09EA45096013EE240D9F
:1053E300F582EF3400F583E02401F0A3E03400F00C
:1053F300024CA974F6121709EAFEEBFFEE242EF510
:1054030082EF3400F583E0FCA3E0FD780079FAEC49
:10541300FAEDFB121627EE2470F582EF3400F583C4
:10542300E8F0A3E9F0780079FAECFAEDFB1216271D
:105433008B09EA45096013EE2470F582EF3400F519
:1054430083E02401F0A3E03400F0024CA974F012CD
:105453001709EAFEEBFF74101216FD780812158285
:10546300120D0D8A0C8B0D8C0E8D0F908183780C91
:1054730012150E9081D3780C12155C780C12191842
:105483008E828F83E0F8A3E0F5838882A3A31215AD
:10549300A01222AE74041216C8E9600302559D8E51
:1054A300828F83E02402F8A3E03400F9E8FAE9FBF1
:1054B3008A828B8378081215219081D3780812157C
:1054C300828A828B83780812156FEE240BF582EFA4
:1054D3003400F583C082C0838E828F83A3A3A3A3EA
:1054E300A3E02401F8A3E03400F9D083D082E0687C
:1054F3007003A3E0697005790102559F8E828F8343
:10550300A3A3A3A3A3A3A3E02401F0A3E03400F087
:10551300EE2474F582EF3400F583E064017036EE17
:105523002475F582EF3400F583E0F8A3E0F98E8269
:105533008F83A3A3A3A3A3A3A3E0687003A3E0693A
:105543007013EE2475F582EF3400F583E02401F047
:10555300A3E03400F0EE2480F582EF3400F583E01D
:1055630064017036EE2481F582EF3400F583E0F8B0
:10557300A3E0F98E828F83A3A3A3A3A3A3A3E068CD
:105583007003A3E0697013EE2481F582EF3400F514
:1055930083E02401F0A3E03400F079007F080217D0
:1055A300DB74F71217099003F0E0F875F004A4C850
:1055B300AAF02AF974F228FE740339FF8028EE2436
:1055C30065F8EF3400F988828983E0FCA3E0FD8865
:1055D300828983E4F0A3F08E828F83A3A3A3A3E045
:1055E300FA7B00120923EE2465F582EF3400F5837C
:1055F300E0F8A3E0F9E849604FEE2464F582EF3464
:1056030000F583E0F5087808121920EE2463F5828B
:10561300EF3400F583E0F9EE2465F582EF3400F50D
:1056230083E0FCA3E0FDEEFAEFFB120BFF74011223
:1056330016C8E96089EE2465F582EF3400F583E04E
:10564300F8A3E0F9E84970137C007D008E828F8314
:10565300A3A3A3A3E0FA7B00120923024BDD74F298
:10566300121709EAFEEBFF890A740E1216FDE0FA1F
:10567300EE2462F582EF3400F583E06401600302F7
:10568300572D9061D0E0F87480C398F50CEE248315
:10569300F582EF3400F583E060047804800278003B
:1056A3008908E928F8E43400F9E824020808E93411
:1056B30000F9E50C98E499A2D265D0334068EA700A
:1056C30005750B028003750B01E0603975090078DD
:1056D3000812191C7A607B05120C3574021216C865
:1056E300750860750905780812191CAC0AA90BEE38
:1056F300FAEFFB120C5374021216C87404250AF550
:105703000A7C607D057401250AF5D9850BD9E50A64
:10571300600D8C828D83F8E0F5D9A318E870F875D5
:10572300E195790080067907800279FF7F060217E9
:10573300DBC082C083E960208C828D83E08A828B08
:1057430083F08C828D83A3AC82AD838A828B83A307
:10575300AA82AB8319E970E0ECFAEDFB02418D7488
:10576300EA121709907803E06442705E90055FE0E7
:1057730014F07056C2AF12577C00782AD0E0F618A6
:10578300D0E0F6E59F5407F9700590817F80039080
:1057930081AB7808121582E9C4C0E07829E6550880
:1057A300F50808E65509F509740B7808121690D028
:1057B300E02508F8906270E0A2E740F8E8C3339070
:1057C3006272F0906270E0D2E0F09003F0E0F47067
:1057D30003025B85E0F875F004A4C8AAF02AF97403
:1057E300F228FE740339FFEE2402F582EF3401F54B
:1057F30083E0F8A3E0F9E849601EEE2402F582EFA6
:105803003401F583E0FAA3E0FBEE2401F582EF34E3
:1058130001F583E0F912101F8E828F83A3A3A3A344
:10582300A3A3A3E0F8A3E0F98E828F83A3A3A3A38A
:10583300A3E8F0A3E9F0906054E09003C9F090600E
:1058430055E09003CAF0906056E09003CBF090606F
:1058530057E09003CCF0906058E09003CDF0906057
:1058630059E09003CEF090605AE09003CFF090603F
:105873005BE09003D0F090605CE0FC9003D1F0908B
:10588300605DE0FB9003D2F090605EE0FD9003D397
:10589300F090605FE0FA9003D4F09003CFE08C08BF
:1058A3002508F8E43400F98D08E82508F8E9340000
:1058B300F98B08E82508F8E93400F98A08E825088F
:1058C300FAE93400FBEE24F7F582EF3400F583E0C8
:1058D3002AF0A3E03BF08C08EE24F9F582EF3400C4
:1058E300F583E02508F0A3E03400F0EE24FBF58215
:1058F300EF3400F583E02401F0A3E03400F0EE245C
:10590300FFF582EF3400F583E0F8A3E0F9E849609E
:1059130042906000E0C333FCE433FDE82CF582E9F8
:105923003DF583E02AF0A3E03BF0906000E0FA90BD
:1059330003D1E0FCEAC333FAE433FBE82AF8E93B9A
:10594300F9E8244AF582E93400F583E02CF0A3E07A
:105953003400F09003CFE070119003D2E0700BA3FA
:10596300E07007A3E07003025A658E828F83A3A3BE
:10597300A3A3A3E0F8A3E0F9EE240DF582EF34002E
:10598300F583E028F8A3E039F9EE240BF582EF3430
:1059930000F583E8F0A3E9F0EE240FF582EF34007D
:1059A300F583E4F0EE241CF582EF3400F583E06424
:1059B30001701EEE2420F582EF3400F583E0F8A396
:1059C300E0F9EE241DF582EF3400F583E8F0A3E956
:1059D300F09003CAE06052EE241CF582EF3400F528
:1059E300837401F0EE246AF582EF3400F583E070EE
:1059F30038EE2474F582EF3400F583E0702BEE2447
:105A030080F582EF3400F583E0701EEE2420F582EA
:105A1300EF3400F583E0F8A3E0F9EE241DF582EFFF
:105A23003400F583E8F0A3E9F0906062E0700302CC
:105A33005B188E828F83E0F8A3E0F9E82406FCE983
:105A43003400FDE82402FAE93400FB120D078E82CC
:105A53008F83E02412F8A3E03400F988828983025B
:105A63005B229003D1E0603AEE240FF582EF34001D
:105A7300F583E4F0EE241CF582EF3400F583E06453
:105A8300017040EE2420F582EF3400F583E0F8A3A3
:105A9300E0F9EE241DF582EF3400F583E8F0A3E985
:105AA3008020EE24FDF582EF3400F583E02401F03D
:105AB300A3E03400F0EE241DF582EF3400F583E417
:105AC300F0A3F0EE240BF582EF3400F583E0F8A3A6
:105AD300E0F98E828F83A3A3A3A3A3E0687003A33B
:105AE300E06960030259D4EE240FF582EF3400F528
:105AF30083E060128E828F83A3A3A3A3A3E0640534
:105B03007002A3E0600B7908EEFAEFFB120BDB8067
:105B130071793E80F3EE241DF582EF3400F583E4C2
:105B2300F0A3F0906060E0C0E0EE2469F582EF340A
:105B330000F583D0E0F09003CFE0F8EE2467F58220
